S01F00007061726B696E675F73656E736F725F70726F746F747970652E7333379B
S11300000010002065010000910100009101000032
S11300109101000091010000910100009101000094
S11300209101000091010000910100009101000084
S11300309101000091010000910100009101000074
S1130040E90300009101000091010000910100000A
S11300509101000091010000910100009101000054
S11300609101000091010000910100009101000044
S11300709101000091010000910100009101000034
S113008091010000910100009101000010B5064C9F
S11300902378002B07D1054B002B02D0044800E045
S11300A000BF0123237010BD780000200000000071
S11300B04C080000084B10B5002B03D00749084832
S11300C000E000BF07480368002B00D110BD064BB9
S11300D0002BFBD09847F9E7000000007C000020CB
S11300E04C0800007400002000000000164B002B98
S11300F000D1144B9D46402292029A1A9246002146
S11301008B460F461348144A121A00F06FFB0F4B2C
S1130110002B00D098470E4B002B00D098470020AE
S1130120002104000D000D48002802D00C4800E016
S113013000BF00F035FB2000290000F005FB00F0B3
S113014019FBC04600000800001000200000000059
S1130150000000007800002094000020000000004F
S113016000000000064880470649074A074B9B1ACF
S113017003DD043BC858D050FBDCFFF7B7FF000099
S1130180C902000058080000000000207800002088
S1130190FEE7C04680B582B000AF00F017F8030058
S11301A07B60084B5B680F2213407A68DA401300C7
S11301B07B60054B7A681A607B681800BD4602B004
S11301C080BDC04600800C400800002080B582B08D
S11301D000AF294BDA6AF0239B01134080225201BD
S11301E093420CD080229201934204D080221201C7
S11301F0934208D00BE0214B1B687B6036E08023E0
S11302001B027B6032E01E4B1B687B602EE01A4BA6
S1130210DA68E023DB00134080229200934218D076
S113022080229200934206D8002B18D080225200DC
S1130230934211D016E0C0229200934206D080224D
S1130240D20093420ED10F4B7B600EE00E4B7B60CD
S11302500BE00E4B7B6008E00D4B7B6005E00D4B23
S11302607B6002E000237B60C046C0467B681800C8
S1130270BD4602B080BDC04600800C400400002092
S113028000000020406F4001809FD500C0D8A70027
S113029040B56400804F120080B582B000AF786032
S11302A0074B7A681A60074BDA6A80231B011340F4
S11302B001D0FFF76FFFC046BD4602B080BDC04607
S11302C00000002000800C4080B500AF034B1800F4
S11302D0FFF7E2FFC046BD4680BDC04600366E0152
S11302E080B586B000AFF860B9607A60FB681B68BF
S11302F07B610122BB689A401300DB431A007B69CF
S11303001A407B6801211940BB6899400B001A43CD
S1130310FB681A60C046BD4606B080BD80B582B099
S113032000AF7860074B5B6D0122134006D1C046D5
S1130330044B1B6D7A681340FAD100E0C046BD46F9
S113034002B080BD00800C4080B586B000AF7860FC
S11303500A00FB1C1A7000233B617B681B0A0F22F6
S113036013400A2B2ED89A00184BD3181B689F46AB
S1130370174B7B6112E0174B7B610FE0164B7B61DF
S11303800CE0164B7B6101233B6107E0144B7B615E
S113039010233B6102E0134B7B61C0467B681B0B5F
S11303A01F221340FB603B69002B03D03B691800FC
S11303B0FFF7B4FFFB1C1A78F9687B691800FFF794
S11303C08FFF00E0C046BD4606B080BD180800009F
S11303D040800C4008800C4044800C4058800C4005
S11303E060800C4078800C4090B58BB000AF314AEF
S11303F080235B01D358BB612E4A2F4BD258BB6973
S11304001340BB612B4B9B6B7B61BB697A691340C7
S11304103B620023FB6145E000237B6237E03B6ADB
S1130420012213402DD0234B9B683B6101227B6A40
S11304309A401300FB601F49204AFB688B507B6A7B
S11304401B013A69D318DB68BB60BB68002B18D06A
S1130450BB681B7A7B60BB681B7A01225340DAB20B
S1130460BB681A72BB681B68002B0AD0BB681C6887
S1130470786A7B685A1E9341D9B2BB685B681A00DC
S1130480A0473B6A5B083B627B6A01337B623B6A41
S1130490002BC4D17B69DB43BA6913403B62FB691F
S11304A00133FB61FB69012BB6DDC046BD460BB0D1
S11304B090BDC04600200C400C1000000810000045
S11304C080B582B000AF02003960FB1D1A70FB1DBD
S11304D01B78002B0DD0FB1D1B78012B09D0FB1DB5
S11304E01B78022B05D0FB1D1B78032B01D0FB1DB1
S11304F01B780949FB1D1A7801203B6898400300CA
S113050018001300DB009B189B00CB1814331860F1
S1130510C046BD4602B080BD0060004080B582B0D8
S113052000AF02003960FB1D1A70FB1D1B78002B05
S11305300DD0FB1D1B78012B09D0FB1D1B78022B52
S113054005D0FB1D1B78032B01D0FB1D1B7809492B
S1130550FB1D1A7801203B68984003001800130023
S1130560DB009B189B00CB1810331860C046BD46B7
S113057002B080BD00600040B0B584B000AFB96087
S113058011007B600F23FB18021C1A700E23FB184A
S11305900A1C1A700F23FB181B78002B11D00F2391
S11305A0FB181B78012B0CD00F23FB181B78022B94
S11305B007D00F23FB181B78032B02D00F23FB1843
S11305C01B780E23FB181B78002B13D07B68002BA1
S11305D008D0BA680F23FB181B7811001800FFF726
S11305E09DFF07E0BA680F23FB181B781100180061
S11305F0FFF766FFBB68072B25D8374C0F23FB1882
S11306001A7835480F23FB1819780B00DB005B18A8
S11306109B00C31804331B68B96889000F20884005
S11306200100C9430B400E2179180878B968890084
S11306308840010019431300DB009B189B00E3185A
S1130640043319602AE0244C0F23FB181A7822483B
S11306500F23FB1819780B00DB005B189B00C318F1
S113066008331B68B9681D488446614489000F201B
S113067088400100C9430B400E2179180878B968F5
S1130680164DAC46614489008840010019431300AB
S1130690DB009B189B00E318083319600E23FB183A
S11306A01B78002B13D17B68002B08D0BA680F236A
S11306B0FB181B7811001800FFF730FF07E0BA6839
S11306C00F23FB181B7811001800FFF7F9FEC04632
S11306D0BD4604B0B0BDC04600600040F8FFFF3F17
S11306E080B582B000AF02003960FB1D1A70FB1D9B
S11306F01B78002B0DD0FB1D1B78012B09D0FB1D93
S11307001B78022B05D0FB1D1B78032B01D0FB1D8E
S11307101B780949FB1D1A7801203B6898400300A7
S113072018001300DB009B189B00CB1810331860D3
S1130730C046BD4602B080BD0060004080B500AF39
S1130740C046BD4680BDC04680B500AFFFF7F6FF8A
S1130750074B01211800FFF7F7FD012304220A21AA
S11307600220FFF709FF0A210220FFF7B9FFFEE785
S113077000720400084B10B50400002B02D00021C5
S113078000E000BF054B1868836A002B00D098472F
S1130790200000F033F8C0460000000048080000C4
S11307A00E4B70B500251E000D4CE41AA410A54292
S11307B004D0AB00F35898470135F8E700F020F86F
S11307C0084B00251E00084CE41AA410A54204D0CE
S11307D0AB00F35898470135F8E770BD6C00002072
S11307E06C0000206C0000207000002003008218C0
S11307F0934202D019700133FAE77047FEE7C0460E
S1130800F8B5C046F8BC08BC9E467047F8B5C0466B
S1130810F8BC08BC9E467047C40300007603000081
S11308207C03000070030000C4030000C403000044
S1130830820300008C030000C4030000C403000012
S113084096030000430000000C000020000000009C
S10B08509CF8FF7F0100000089
S113085800366E0100800000809FD5000000000073
S1130868000000000000000000000000000000007C
S11308780000000000000000000000004408000020
S1130888000000000000000000000000000000005C
S1130898000000000000000000000000000000004C
S11308A8000000000000000000000000000000003C
S11308B8000000000000000000000000B500000077
S10B08C88D0000000000000097
S903016596
